:10078000AA2FAB34CD34FF3FFF3FFF3FFF3FFF3F7A
:1007E0003934303400340434FF34FF34FF34FF3400
:1007F0002834053459340034FF34FF34FF34FF34D7
:1008000000300800C02BFF3FFF3FFF3FFF3FFF3F8F
:100F0000FF3FFF3FFF3FFF3FFF3F55309600AA30B6
:100F1000960095140000000008002300090E9100BF
:100F20009200F03091050F30920508002300151350
:100F3000151595178D2F9627C72710308700151484
:100F40000000000013081A0014081A00910A870B09
:100F50009F2F0800C12720007A088600FA0A790826
:100F6000F90A9B270608BE270608CB272000C223C4
:100F70007A06031DAB2F7F30BE27BB2B9627151695
:100F8000852F8B132000FA01C123F900C72FA03051
:100F90008400850108009627C72795161030870022
:100FA00012009300120094000130070203199512F9
:100FB0008527910A870BD02F1511080003390B00E4
:100FC000E42FE92FFF34FF34F030840083308500B4
:100FD0000800F83084008330850008002000022CCF
:100FE0000234013402346534783470346D346F3433
:100FF00064340134023403340034AA34DE2F003464
:00000001FF
