:1008C000A52FAB34CD34FF3FFF3FFF3FFF3FFF3F3E
:1009E0003934303402340534FF34FF34FF34FF34FB
:1009F0002834053459340034FF34FF34FF34FF34D5
:100A00008431602C00300800FF3FFF3FFF3FFF3F75
:100EF000FF3FFF3FFF3FFF3FFF3FFF3F5530960063
:100F0000AA30960095140000000008002300090E86
:100F100091009200F03091050F3092059135920DBD
:100F200008002300151315159517862F9127C6273E
:100F30002030870015140000000013081A00140860
:100F40001A00910A870B9A2F0800C02720007A0800
:100F50008600FA0A3F3079060319F90A7908F90A76
:100F600096270608BD270608CA27200062247A06AD
:100F7000031DA62F3F30BD272B2A912715167E2F44
:100F80008B132000FA016124F900C62FA0308400E1
:100F9000850108009127C62795162030870012008A
:100FA00093001200940001300702031995127E2766
:100FB000910A870BCF2F1511080003390B00E32F7F
:100FC000E82FFF34FF34F0308400843085000800BF
:100FD000F830840084308500080020008531002D21
:100FE0000434013402346534783470346D346F3431
:100FF00064340134023403340034AA34DD2F003465
:00000001FF
