:020000040000fa
:100000000200d2021003000000000002100b0000ea
:10001000000000021013000000000002101b00008e
:10002000000000021023000000000002102b00005e
:10003000000000021033000000000002103b00002e
:10004000000000021043000000000002104b0000fe
:10005000000000021053000000000002105b0000ce
:10006000000000021063000000000002106b00009e
:10007000000000021073000000000002107b00006e
:10008000000000021083000000000002108b00003e
:10009000000000020db8e490000278a4790180020b
:1000a000f0a3d8fcd9fa7aa57b009000e47809790e
:1000b000018015e493a3ad82ae838a828b83f0a383
:1000c000aa82ab838d828e83d8e9d9e71203b1125d
:1000d0000dd775d00075813f751c8075931e5392a6
:1000e000fe0200960010000000000200bb0102e7c3
:1000f00022c0925392fec082c08389828a83bb0051
:1001000003e08002e493d083d082d09222bb00151a
:10011000c0925392fec082c0838a838982f0d083ca
:10012000d082d09222bb0101f722cac0e0e6f309d7
:1001300008dafad0e0fa22cac0e0e0f208a3dafa5c
:10014000d0e0fa22600c08c6c313c618c613c6d581
:10015000e0f422700422600d18c6c333c608c6330b
:10016000c6d5e0f41822e4735392fed083d08225e2
:100170001cf8c51cc39824fbcef208e520f208e960
:10018000c0e07908e709f208defad0e0f9eff208fa
:10019000d0e0fed0e0f208eef208e473a81ce2fe24
:1001a00008e208f520e9c0e07908e208f709dffa7b
:1001b000e208ffd0e0f9e208c0e0e208c0e0881cf5
:1001c0005392fe22e584f208e585f222e208f584e6
:1001d000e2f585227403800474028000c9c0e0e562
:1001e0001cc399f51cc912012ad0e0f922740380be
:1001f00000c8c0e0e51cc398f51cc8120137d0e068
:10020000f82275bc0075bc005392fe22800f8a82d2
:100210008b835392fee0f5bda3aa82ab83ecf8ed8d
:10022000f9e824ff1ce934fffde84970e15392fe30
:1002300022e5bdf9e5bcfae9fb5392fe227400f514
:10024000d374022408f5d25392fe22a2afe433f80d
:10025000c2af5392fe906270e0a2e740f5e9c3336b
:10026000906272f0906270e0d2e0f0e0a2e740fbb2
:10027000e8a2e092af2274fa120168a2af33f8c28a
:10028000afed900002f0eca3f0a37462f0a37473de
:10029000f0a3e4f0e9a3f0a37412f0a37442f0eb2e
:1002a000906272f0ea906271f07400f5d575d40234
:1002b00075d601906270e0d2e1f0e0a2e740fbe881
:1002c000a2e092af7f0102019c5392fe906276e021
:1002d00075c6807480659e70fa9062707408f02212
:1002e000c008c0098908750900740b780812015309
:1002f000fae5094480fbd009d0085392fe2274f736
:10030000120168909093e064bf7063e5c7f508122e
:10031000020275c7007c937d007a007b9012020c6c
:100320007c5d7d077aa37b9012020c909094e01480
:10033000f5097f00801674032ffef91202e0eec467
:10034000540ff5c77c007d0812020c0fefc395090e
:1003500040e48508c71202318a088b09a808a90958
:10036000909095e0687003a3e069703e8038e5c71f
:10037000f5087fa57e02eef91202e08a828b83eef9
:10038000c4540ff5c778007908e02fffa3e824ffd5
:1003900018e934fff9e84970f00eeec3943040d606
:1003a0008508c7ef70047901800279007f0402019b
:1003b0009c5392fe900001e090001af0e59d5418c5
:1003c00064107005e0a2e04035e5c7f8790075c714
:1003d00000909000e0640270010988c7e9a2e05033
:1003e0001d1202fee960179000017403f00592905f
:1003f00000a5e0f582a3e0f58305921201661202e2
:10040000c9900001e4f012023d12069e1206ce12bf
:10041000071e80fb74f8120168151c151ca81c121d
:1004200001c490620ee0fee4f0906211e0ffa2e4ed
:1004300050197480f09000227407f01206276006ad
:10044000120643120166900022e4f0efa2e2500b84
:10045000906211e4f0900022f08060900022e0f8b9
:100460007402687042906216e0ff9000391201ed4c
:10047000eff97a207b621206da051c051c051c8f39
:100480000890003c12061c12060f2f1206321206ac
:100490002a6004744080027448906211f0e8496058
:1004a000030205fc0205df7406687006120643129b
:1004b0000166900022e06003020589efa2e040039c
:1004c0000205fc750831750900750a0078081201eb
:1004d000d479087a207b621206da051c051c051cfb
:1004e00090003ee4f0a3f0900031e054e0600e2470
:1004f000e0606a24a0604024e06071807ea3e01484
:10050000602624fe601d24fe600a24fc601f24fe79
:1005100060208067120a9f900022e0640470647477
:10052000608062120a9980ef120a9380ea120bcf60
:1005300080e5120d0680e0a3e0600e24fa600f242f
:10054000fe601024fe601180321208cf80c9120aaa
:10055000e780c4120ba980bf120ca880ba90003e9d
:100560007446f0a37407f012074680ab90003e7407
:100570001df0a37408f012081d809c9000227404e2
:10058000f0809c7440906211f0900022e0f87401b9
:1005900068705e7f0290003ce0f8a3e0f9c3e89445
:1005a00020e994005007e8f50a7f0a8003750a20c5
:1005b0009000391201eda90a7a207b621206f30538
:1005c0001c051c051c850a0812060f250812063298
:1005d00012061cef906211f0e50ac39420501d1220
:1005e00006276006120643120166900022e4f0809e
:1005f0000b7405687006120643120166ee90620ed7
:10060000f0a81c1201cc051c051c7f0302019c9064
:100610000039e0f9a3e0faa3e0fbe922c3e0950882
:10062000f0a3e09400f02290003ee0f8a3e0f9e8a7
:100630004922f9e43afa900039e9f0a3eaf0a3eb91
:10064000f0a322059290003ee0f582a3e0f5830539
:100650009222c008c0097800742328f582e434008f
:10066000f583e95392fef008e8c3940540ea780068
:10067000742828f582e43400f583e9f008e8c3948f
:100680000540edd009d008225392fe90001b740261
:10069000f0a3e4f0900022f0790312065222c00881
:1006a000c00975082175090078081201d87c007d01
:1006b000007a407b00120ddb051c051c90001b74aa
:1006c00002f090620f04f0e0a2e750fb80b553f413
:1006d000fed29043fe015392fe2212070c6010538b
:1006e00092fee012010de9240109e43afadcf0532c
:1006f00092fe2212070c60101200ec5392fef0e9f9
:10070000240109e43afadcf05392fe228a828b83b8
:10071000e9fca81ce2f908e2fa08e2fbec22eec0d0
:10072000e05392fe906206e0f8906202e0fe906272
:1007300004e0e8a2e25003120688eea2e0500312a1
:100740000414d0e0fe2274f7120168900032e070c9
:100750000302080214600302081290001a7401f0e8
:10076000900022e0f87038900037e0f8a3e0f9e854
:1007700049700d9000ab7402f0900022e40208175b
:100780009000397461f0a37400f0a3e4f0a3e8f0e2
:10079000a3e9f09000227402f09000ab048078741a
:1007a0000268706e900033e02440f508a3e0340046
:1007b000f509c39408400c900022e4f09000ab745b
:1007c0000a8054e508541f701285080a85090b74c5
:1007d00005780a120144a90a12024b900037e0245e
:1007e0000354fcf97c617d0074047808120153aa5b
:1007f00008ab09120276900022e4f09000ab740579
:10080000801590001a7402f0900022e4f075c90877
:1008100080069000227404f07f0402019c5392fe33
:10082000900032e06403701a90003974a7f0a3744a
:1008300000f0a3e4f0a37406f0a3e4f09000220417
:10084000f02280009000227404f0225392fe900067
:10085000a1e4f0a3740ff02274fa120168151c15bc
:100860001ca81c1201c4eafcebf87a007b0008808b
:1008700038e8604d05929000a1e0fda3e0f5838d7e
:1008800082a3e493fdec6d6034e96d70099000a1e2
:10089000e0faa3e0fb189000a1e02efea3e03400f4
:1008a000ff9000a1eef0a3eff09000a1e0f584a38b
:1008b000e0f585e4059293fe70b7e860047a007b6a
:1008c00000a81c1201cc051c051c7f0102019cc064
:1008d00008120c9a60030209a7a3e0f8a3e06003e2
:1008e0000209a7a3e064027002a3e060030209a763
:1008f000900031e02480600914604f14605c0209ac
:10090000a7e860030209a790002ee0600478018048
:100910000278009000a3e8f0a3e4f090002de060de
:100920000a9000a3e04402f0a3e4f0900022e06407
:1009300004601490003974a3f0a37400f0a3e4f0f1
:10094000a37402120cfdf0d0082290001be0640496
:1009500070559000a3e4f0a380d0e8547ff5089090
:10096000001be064047040e508c394065039741b12
:100970002508f582e43400f583e854806018a3a3c9
:10098000a3a3a3a3a3e0640370047801800278000a
:100990009000a3e88091e582240cf5825002058343
:1009a000e0640370e980e39000227404809874f995
:1009b000120168151c151ca81c1201c4e9fa90004c
:1009c00037120ca06003020a7d90001be0640460f3
:1009d0000b900035120ca06003020a7d900031e0fc
:1009e000541f6009146023146012020a7d900033c2
:1009f000e064017015ea90002d020a82900035e053
:100a0000547ff508900033e0600479008077e508b2
:100a1000c394065068e50890620ef0741b2508f533
:100a200084e43400f585900035e054806021ea606c
:100a300004741080027440906211f0ea6004740340
:100a40008001e40592a3a3a3a3a3a3a3f08025eab6
:100a50006004742080027480906214f0ea60047470
:100a6000038001e4c0e0e584240cf582e43585f5db
:100a700083d0e0f05392fe90620ee4800590002255
:100a80007404f07901a81c1201cc051c051c7f021e
:100a900002019c79001209ae2279011209ae22539b
:100aa00092fe900035120ca07018a3120ca07012c8
:100ab000900033e0f8a3e0f9e85480fae9fbea4b50
:100ac0006002801ce8906200f090001b6009e06406
:100ad00002700c7403f022e0640370037402f022cd
:100ae0009000227404f02274f812016812084b90ee
:100af0000033e0faa3e0f914600814600d146031cb
:100b000080377b007a0079018033eafb7a00790232
:100b1000120858120b94e92402f9e43afa89828afd
:100b200083e493f8740193f990003ce8f0a3e98022
:100b30001ceafb7a00790380047b007a00120858d3
:100b4000120b94a37b801200eca3f0a3e4f09000be
:100b500039e0fca3e0fda3e0feec4d4e90002270d6
:100b60000474048029e064046025900037e0faa34f
:100b7000e0fb90003ce0f8a3e0f9c3ea98eb995061
:100b80000890003ceaf0a3ebf09000227401f07fa3
:100b90000302019c900039eaf0a3ebf0a37480f00b
:100ba000900039e0f9a3e0fa22120c9a7010a31217
:100bb0000ca0700aa3e064017002a3e06003020ac3
:100bc000e0900039741cf0a37400120cf3f022744e
:100bd000f812016890001be064027003020c81901f
:100be0000035120ca06003020c81a3120ca060035c
:100bf000020c81900034e06003020c8112084b90db
:100c00000033e07003020c897b007a00790212083d
:100c1000588a088b09ae08af09ee4f606490003324
:100c2000e0f88e828f83a3a3a3a3a3e493c0e0e89c
:100c3000fad0e06a70d290001b7404f0e8a3f0755b
:100c40000a008e828f83a3a3a3a3e493f8e50ac3cb
:100c5000985044850a08741d2508f582e43400f58f
:100c600083e4f07b007a0079041208588a828b832f
:100c7000e58245836007a3a3a3e49370e6050a8099
:100c8000c19000227404f0800e90001cf090001bb4
:100c90007403f0f9120652020b8f5392fe90003348
:100ca000e0f8a3e0f9e8492274f812016890001b0b
:100cb000e064047019900031e064817011120c9da1
:100cc000700c900037e064017002a3e060079000b0
:100cd000227404801a900035e0241df508a3e03446
:100ce00000f509900039e508f0a3e509120cf3f0ce
:100cf000020b8ff0a3e4f0a304120cfd22f0a3e496
:100d0000f0900022042274f9120168151c151ca829
:100d10001c1201c490001be064046003020dab9040
:100d20000031e064016003020dab900037120ca0ab
:100d3000707912084b7b007a0079021208588a8277
:100d40008b83e5824583600fa3a3a3a3a3e493f859
:100d500090001ce06870de7b007a0279041208586b
:100d60008a828b83e582458360410592900033e05f
:100d7000f8a3e0f9900035e0faa3e0fb85828485d2
:100d80008385a3a3e493fcea6c7001eb600d0592ec
:100d9000a3a3a3e493fce86c4970bc741d2af582fc
:100da00074003bf583e85392fe80059000227404a2
:100db000f0020a855392fe2274fa120168151c157e
:100dc0001ceafeebffa81ceef208eff2aa1cab93a4
:100dd0007901120db480ee1200932274fa120168a8
:100de000e51c2406f8e2fe08e2ffee4f6014ecf882
:100df0008a828b83e8f0a3ee24ff1eef34ffff4ec0
:100e000070f27f0102019cffffffffffffffffff6a
:100e1000ffffffffffffffffffffffffffffffffe2
:100e2000ffffffffffffffffffffffffffffffffd2
:100e3000ffffffffffffffffffffffffffffffffc2
:100e4000ffffffffffffffffffffffffffffffffb2
:100e5000ffffffffffffffffffffffffffffffffa2
:100e6000ffffffffffffffffffffffffffffffff92
:100e7000ffffffffffffffffffffffffffffffff82
:100e8000ffffffffffffffffffffffffffffffff72
:100e9000ffffffffffffffffffffffffffffffff62
:100ea000ffffffffffffffffffffffffffffffff52
:100eb000ffffffffffffffffffffffffffffffff42
:100ec000ffffffffffffffffffffffffffffffff32
:100ed000ffffffffffffffffffffffffffffffff22
:100ee000ffffffffffffffffffffffffffffffff12
:100ef000ffffffffffffffffffffffffffffffff02
:100f000012010002000000205824feff0000010230
:100f1000030109021b0001010480250904000000ef
:100f2000fe01020409210d03e84000010104030948
:100f300004120342006c00750065006700690067d9
:100f400000610016034c006f007700200045006e22
:100f50000065007200670079000a03310032003337
:100f6000003400080344004600550000ffffffff67
:100f7000ffffffffffffffffffffffffffffffff81
:100f8000ffffffffffffffffffffffffffffffff71
:100f9000ffffffffffffffffffffffffffffffff61
:100fa000ffffffffffffffffffffffffffffffff51
:100fb000ffffffffffffffffffffffffffffffff41
:100fc000ffffffffffffffffffffffffffffffff31
:100fd000ffffffffffffffffffffffffffffffff21
:100fe000ffffffffffffffffffffffffffffffff11
:100ff000ffffffffffffffffffffffffffffffff01
:1010000002110802327effffffffff023e60ffff7a
:10101000ffffff023f0fffffffffff023fc6ffff83
:10102000ffffff0226f0ffffffffff023c26ffff4e
:10103000ffffff0240a8ffffffffff023f66ffff29
:10104000ffffff023eeaffffffffffffffffffff83
:10105000ffffff023264ffffffffffffffffffff05
:10106000ffffffffffffffffffffff023d9dffffb1
:10107000ffffff024038ffffffffff023e20ffffa0
:10108000ffffff023289ffffffffffffffffffffb0
:10109000ffffffbf3039a300000000000000000088
:1010a0000000e67582e47583ff7401121123e47970
:1010b000347802b800028004f709d8fce4900302f7
:1010c000781b79078002f0a3d8fcd9fa7a1c7b0937
:1010d000901144786779028015e493a3ad82ae83c2
:1010e0008a828b83f0a3aa82ab838d828e83d8e918
:1010f000d9e77582fe7583fe74021211237582d6bc
:101100007583ff740112112375d00075813f75310d
:1011100000753202753303759f007593005392fe7c
:101120000210aec09ff59fe473d09f225392fed071
:1011300083d082c09fe493c0e0740193c0e0740246
:1011400093f59f220300000201020300000f00c379
:10115000a88ee8b19dcf7f5eb98b9f41efb055f46b
:1011600001fa00960064004b0032001e001400d605
:10117000be898e000106021213151429417671fff3
:10118000c1fbe84c90728be7b3518963ab23230218
:10119000841872aa612f3b51a8e53749fbc9ca0cd4
:1011a00018532cfd45e37102000040420f0000403f
:1011b0000000fffffffffaffffff0000800062005a
:1011c0000000ff7f0000050006000700000001008e
:1011d0000100000100010202030002000000000003
:1011e000020201000219000000093d0000e4ffffb7
:1011f000fffb349b5f8000008000100000000000b7
:101200000002000000ff00000000000805010000cf
:1012100000000001080500000000000007030000b6
:1012200000800001000080000004000000000007b2
:10123000090000000d00000104070000000000028a
:1012400001000002020000070a381b3e1b441b4a33
:101250001b501b561bc01aee1cd01ca81d3c1d4267
:101260001d800004058000040606000000800004c4
:101270000280000404800002000b000000800006d1
:10128000004817d0137c195a144e1df41cfe1b96ef
:101290001dba1acd0601ffffff0000000080ffff0e
:1012a000ffff00000000c000000012112cfbd30261
:1012b00012112c13d40212112c3ed40212112c8bb9
:1012c000d40212112ca3d40212112ccbd40212116d
:1012d0002c1bd50212112c4bd50212112cacd502ad
:1012e00012112cc8d50212112ce4d50212112c09ae
:1012f000d60212112c62d60212112cf1da0212114e
:101300002ca5db0212112c988a0312112cb08a032f
:1013100012112c218b0312112c648b0312112cbe81
:10132000f30212112c52f40212112cc8f402121101
:101330002cdef40212112c0af50212112c1ff502f8
:1013400012112c78f50212112c99f50212112cf7ba
:10135000f50212112c3cf60212112cadf6021211fc
:101360002cd8f60212112c5cf70212112c8bf7020a
:1013700012112caaf70212112cbef70212112c0323
:10138000f80212112c51f80212112c04ef02121162
:101390002c20ef0212112c56ef0212112c64ef02d6
:1013a00012112c95ef0212112cc2ef0212112ccb4c
:1013b000ef0212112c0ef00212112c94f0021211f5
:1013c0002c01f10212112c52f10212112c81f102a6
:1013d00012112cd5f10212112ca7f20212112cb20b
:1013e000f20212112ce5f20212112c16f302121164
:1013f0002c67f30212112ca4f30212112c228e037b
:1014000012112c428e0312112c6b8e0312112cc55b
:101410008c0312112cd98c0312112c338d03121151
:101420002c088f0312112c1f8f0312112c928b0387
:1014300012112cbf8b0312112cb0f20112112c1db2
:10144000f30112112c63f30112112c8cf301121110
:101450002c98f30112112cbbf30112112cfff30194
:1014600012112c46f40112112ca4f40112112cf7c4
:10147000f50112112ccdf60112112c74f701121185
:101480002c9af70112112cdef70112112c77f801ba
:1014900012112c8cf80112112ccaf80112112cea2d
:1014a000f80112112c4cf90112112c5ff9011211e3
:1014b0002c6ff90112112c5efa0112112c6efb0136
:1014c00012112ce0fb0112112c94fc0112112c7151
:1014d000b90112112c17bb0112112c9bbb01121167
:1014e0002cefbc0112112c5ebd0112112c98bd0114
:1014f00012112c62be0112112ce3be0112112ccb71
:10150000bf0112112cdcc00112112ccec10112112d
:101510002c08c30112112c61c30112112cc9c30183
:1015200012112c46c40112112ce7c40112112c59be
:10153000c50112112cf2c50112112c58c60112114d
:101540002cc6c60112112c1bc70112112ca3c701f6
:1015500012112c59c80112112c0fc90112112cd1d2
:10156000ca0112112cffcc0112112c46cd0112110f
:101570002cc2cd0112112c2bce0112112c79ce01cf
:1015800012112c25d00112112cc5d00112112c5191
:10159000d10112112c92d10112112c13d30112116d
:1015a0002c74d30112112c88d40112112c7ed50178
:1015b00012112cadd60112112ce8d70112112cc03a
:1015c000d90112112c76dc0112112c27dd01121128
:1015d0002cd3dd0112112cc4de0112112c37df01d6
:1015e00012112ca3e30112112c25e60112112cf388
:1015f000e60112112c45e90112112c65ea011211c4
:101600002c8eeb0112112ca5eb0112112c85fb0283
:1016100012112cc4fb0212112cf1fb0212112c1e10
:10162000fc0212112c0bfd0212112ce2fd02121110
:101630002c86890312112cdf890312112c408a0396
:1016400012112c00800112112c1e800112112c3b52
:10165000800112112c58800112112c80810112116d
:101660002cfa810112112c12840112112c788401a0
:1016700012112c01850112112c41850112112c75ba
:10168000850112112cb7850112112c25860112112a
:101690002cd3860112112ce1860112112c1c880119
:1016a00012112c588a0112112cde8a0112112c12ef
:1016b0008b0112112c568c0112112c7f8d011211ed
:1016c0002c9f8d0112112cc68d0112112c028e013e
:1016d00012112c358e0112112c36920112112c5e32
:1016e000920112112caa920112112c2499011211ab
:1016f0002c70990112112cb1990112112c5d9a01d3
:1017000012112c249b0112112cb19d0112112c1ebf
:101710009f0112112c8e9f0112112ccba1011211cd
:101720002c42a20112112c86a20112112cd2a2016c
:1017300012112c2aa30112112ccba30112112c156a
:10174000a40112112c70a40112112c7aa4011211ff
:101750002cb1a50112112c59a60112112cdfa601e2
:1017600012112c3aa70112112cfaa70112112c9b6d
:10177000a80112112c38aa0112112c59aa01121118
:101780002c93ac0112112cc5ad0112112c6aae01c3
:1017900012112ccbae0112112ca4af0112112ca5e9
:1017a000b00112112c9db10112112caeb101121118
:1017b0002cb8b10112112cbdb30112112c18b401b7
:1017c00012112c47b40112112caeb40112112cddf0
:1017d000b40112112c70b50112112c04b6011211b2
:1017e0002c65b60112112cdbb60112112c11b701b8
:1017f00012112c46b70112112c65b70112112cbe23
:10180000b70112112cd8b70112112c05b801121111
:101810002c13b80112112c3cb80112112cabb801d9
:1018200012112c11860312112ccd860312112cefec
:10183000860312112c3a870312112c7d8703121193
:101840002c458d0312112c53a00212112c7fa002e3
:1018500012112cc7a00212112c23a10212112c84e8
:10186000a10212112c49a20212112c64a30212111e
:101870002cf6a40212112c9fa80212112c7daa0290
:1018800012112c7fad0212112cc3ad0212112caf1c
:10189000ae0212112cb4af0212112c2eb102121191
:1018a0002ca3b10212112ccdb20212112c57f80246
:1018b00012112c83f80212112c9af80212112c9e8c
:1018c000f80212112c38f90212112cecfa02121142
:1018d0002c00800212112c66800212112c838002cf
:1018e00012112cb0800212112cdc800212112c106b
:1018f000810212112c5f810212112c8e81021211b1
:101900002cf1810212112c4e820212112c1c830226
:1019100012112c96830212112c37850212112cef12
:10192000850212112c82880212112c048c021211d1
:101930002c488c0212112ca18c0212112c578d02f2
:1019400012112c288f0212112cb88f0212112cf9af
:101950008f0212112c4f900212112ca7900212111b
:101960002ccc900212112c1f910212112c609102aa
:1019700012112cdb920212112cfc930212112c0d6d
:10198000940212112c89950212112c9f95021211aa
:101990002cc7950212112c7e960212112c939602de
:1019a00012112cc5960212112ccb970212112c6227
:1019b000980212112c98980212112ce09802121120
:1019c0002cd4990212112c2f9a0212112c169b0260
:1019d00012112c899b0212112ccd9b0212112cdfab
:1019e0009c0212112c479f0212112c779f02121198
:1019f0002cd99f0212112c42a00212112ccf870366
:101a000012112cdc870312112cff870312112c42b8
:101a1000890312112c4f890312112c7d8903121195
:101a20002c25ea0212112c44ea0212112c0feb02af
:101a300012112cb5ec0212112c13ed0212112c68ac
:101a4000ee0212112cd1ee0212112c308c03121165
:101a50002c5e8c0312112c888c0312112c00800335
:101a600012112c89800312112cbb800312112c2b14
:101a7000810312112ccd810312112cf58103121157
:101a80002cd38e0312112cdf8e0312112c974f00d2
:101a900012112ced4f0012112cb6500012112cd146
:101aa000520012112c6f540012112c3555001211d6
:101ab0002c45560012112ce5560012112c625700cd
:101ac00012112c18580012112c805a0012112c00df
:101ad0005b0012112c645b0012112c0e5c001211c1
:101ae0002c0f5d0012112c145e0012112cbb620031
:101af00012112c0c650012112cc3670012112c76e8
:101b00006a0012112c746d0012112c6d6f001211ed
:101b10002c0f720012112cbd760012112c137800bc
:101b200012112ca2780012112c2c790012112c8089
:101b3000790012112c33840312112cb18403121179
:101b40002cc7840312112cdd840312112cf384039f
:101b500012112c14850312112c2a850312112c400a
:101b6000850312112c4dc30212112cddc302121178
:101b70002c60c40212112c86c40212112c52c50210
:101b800012112c08c60212112c48c60212112cceba
:101b9000c60212112c40c70212112ca2c702121148
:101ba0002c1fc80212112c32c80212112c46c80276
:101bb00012112c7bc80212112cadc80212112cdf9d
:101bc000c80212112c25c90212112c65c90212116a
:101bd0002cb9c90212112cc8c90212112cd1c90288
:101be00012112c64ca0212112c9bcb0212112cc1af
:101bf000db0212112cd0db0212112cbedc021211fe
:101c00002cd0dc0212112c6ede0212112c23df020a
:101c100012112c8cdf0212112ca5df0212112cbb29
:101c2000df0212112c0ae00212112c4de0021211f7
:101c30002c97e00212112ce0e00212112c06e102b6
:101c400012112c26e10212112c3ee10212112c5924
:101c5000e10212112cafe10212112c06e202121164
:101c60002c53e20212112c9be20212112cbbe20255
:101c700012112ccee20212112cdee20212112cf013
:101c8000e20212112cfee20212112c0ce3021211dc
:101c90002c1ce30212112c28fe0212112c55fe02fc
:101ca00012112cefb20212112c13b30212112c28b4
:101cb000b30212112cc6b30212112cecb302121192
:101cc0002c1fb40212112c8cc00212112cbec002a7
:101cd00012112cc5c20212112c46820312112ca81b
:101ce000820312112ccc820312112c1b83031211bc
:101cf0002c6f830312112c10840312112c298403de
:101d000012112cbdcb0212112cdacb0212112ceacb
:101d1000cc0212112c49cd0212112cf1cd0212115c
:101d20002c70cf0212112c1cd00212112c6ad0027e
:101d300012112ccfd00212112c35d10212112c8786
:101d4000d10212112c13d20212112c8ed2021211b6
:101d50002c67d30212112c2ce30212112c8be502fa
:101d600012112cbfe50212112cdbe50212112c100e
:101d7000e60212112c3de60212112c6de602121140
:101d80002c9ce60212112cd0e60212112cf8e6026d
:101d900012112c35e70212112c57e70212112c0cec
:101da000e80212112c60e80212112c7be8021211d9
:101db0002ccafd0112112c31fe0112112c91fe01d1
:101dc00012112c93fe0112112ca9fe0112112c5894
:101dd000ff0112112c667f0012112c847f0012115a
:101de0002ca3790012112c857a0012112c6c7b0027
:101df00012112c747b0012112c7c7b0012112cd53b
:101e00007b0012112c777c0012112c747d001211b2
:101e10002ca77d0012112c787e0012112cd67e008a
:101e200012112ca3100012112cb58d0312112c804d
:101e30008e0312112c378f03e066701008a3e06642
:101e4000700a08a3e066700408a3e06622c3e79660
:101e50000809e7960809e7960809e796a2d265d02f
:101e60003322c3e09608a3e09608a3e09608a3e017
:101e700096a2d265d03322c021c3e096f52108a3f3
:101e8000e096422108a3e096422108a3e096422171
:101e9000a2d265d033e5217001d3d02122c3e796c9
:101ea0000809e7960809e7960809e79622c3e0962d
:101eb00008a3e09608a3e09608a3e09622c021c3f9
:101ec000e096f52108a3e096422108a3e09642217e
:101ed00008a3e09645217001d3d02122bb0102e77f
:101ee00022c0925392fec082c08389828a83bb0043
:101ef00003e08002e493d083d082d09222bb00150d
:101f0000c0925392fec082c0838a838982f0d083bc
:101f1000d082d09222bb0101f722080808eac0e073
:101f2000ebc0e086f0e7a4fa180986f0e7a42afae5
:101f3000180986f0e7a42afa180986f0e7a42afa15
:101f40001986f0e7a4fbe5f02afa190886f0e7a461
:101f50002bfbe5f03afa190886f0e7a42bfbe5f035
:101f60003afa18180986f0e7a4c5f02bfbe43afa10
:101f70001908e7c5f0c6a426f6e5f03bfbe43afafb
:101f80001886f0e7a4f6e5f00826f6e43b08f6e448
:101f90003a08f6d0e0fbd0e0fa22e4cfc0e0e4ce8d
:101fa000c0e0e4cdc0e0e4ccc0e075f020e626f669
:101fb00008e633f608e633f608e633f6181818eca8
:101fc00033fced33fdee33feef33ffc3ec9709ed49
:101fd0009709ee9709ef97191919400fffec97fc35
:101fe00009ed97fd09ee97fe191906d5f0bfecf73c
:101ff00009edf709eef709eff7191919d0e0fcd050
:10200000e0fdd0e0fed0e0ff221220711818181277
:102010001f9a122060191919221220601919190823
:102020000808e618181820e7e0121f9a1220711805
:10203000181822090909e719191920e7dc08080806
:10204000e618181820e703021f9a122071181818b2
:10205000121f9a12207118181812206019191922cb
:10206000e4c397f709e497f709e497f709e497f7ca
:1020700022e4c396f608e496f608e496f608e49699
:10208000f6226017080808c6a2e713c618c613c6ca
:1020900018c613c618c613c6d5e0e922601608088c
:1020a00008c6c313c618c613c618c613c618c61367
:1020b000c6d5e0ea22700908080822601618181828
:1020c000c6c333c608c633c608c633c608c633c639
:1020d000d5e0ea22e627f60809e637f60809e637ea
:1020e000f60809e637f622e026f608a3e036f608f9
:1020f000a3e036f608a3e036f622e026f008a3e0d7
:1021000036f008a3e036f008a3e036f022c3e697e5
:10211000f60809e697f60809e697f60809e697f63d
:1021200022c3e0c696f608a3e0c696f608a3e0c66a
:1021300096f608a3e0c696f622e056f608a3e05607
:10214000f608a3e056f608a3e056f622e647f6089e
:1021500009e647f60809e647f60809e647f622e0e9
:1021600046f608a3e046f608a3e046f608a3e046d4
:10217000f622e046f008a3e046f008a3e046f008a7
:10218000a3e046f022e066f608a3e066f608a3e0c6
:1021900066f608a3e066f622e0f608a3e0f608a3d8
:1021a000e0f608a3e0f622e6f008a3e6f008a3e6ce
:1021b000f008a3e6f022e0faa3e0fba3e0fca3e032
:1021c000fd22eaf0a3ebf0a3ecf0a3edf022e0fc9b
:1021d000a3e0fda3e0fea3e0ff22ecf0a3edf0a35b
:1021e000eef0a3eff022e0f8a3e0f9a3e0faa3e019
:1021f000fb22e8f0a3e9f0a3eaf0a3ebf022cac0c7
:10220000e0e6f0a308dafad0e0fa22cac0e0e0a3e0
:102210000592f0a30592daf6d0e0ca225392fefab4
:10222000e9fb7921e7f0a309dafae8f0a3ebf9f08a
:10223000a3ecf0a3edf0a3eef0a3eff0a3e520f004
:10224000a3e5f0f0a3e592f0a3e584f0a3e585f023
:10225000a3e581f0a3e531f0a3e532f0a3e533f087
:10226000a3d0e0fad0e0f0a3caf0eac0e0e0c0e01a
:102270007a007b00225392fecac0e0ebc0e07921d5
:10228000e0f7a309dafae0f8a3e0f9a3e0fca3e0a1
:10229000fda3e0fea3e0ffa3e0f520a3e0f5f0a39b
:1022a000e0c0e0a3e0f584a3e0f585a3d0e0f592db
:1022b000d0e0fbd0e0fae0f581a3e0f531a3e0f552
:1022c00032a3e0f533a3d0e0d0e0e0c0e0a3e0c06b
:1022d000e0ea4b70027a0122b90010bb0008e88adc
:1022e000f084f8aaf022e4fbc8fa22eb70227b10fb
:1022f000c833c8c933c9335007c39ac3dbf2800659
:102300009a50012adbeac833f4c8c933f4c9fa2267
:1023100075f008e4c833c8c933c933c99ac99b509a
:1023200004c92ac93bd5f0ecfbc833f4c8e4c9faa8
:1023300022600d08c6a2e713c618c613c6d5e0f37f
:1023400022600c08c6c313c618c613c6d5e0f42213
:10235000700422600d18c6c333c608c633c6d5e064
:10236000f41822253210af08f532400c15338008de
:10237000f53240021533d2af2200c0d0253210af63
:1023800008f532500c05338008f53250020533d27f
:10239000afd0d0222532f58210af08f532400c15af
:1023a000338008f53240021533d2af85338322c51e
:1023b000822532c582c583353310af07f533858258
:1023c000328007f533858232d2afc583222532f5bc
:1023d00082e43533f583222532f584e43533f585ff
:1023e000222532f8e43533f9222532fae43533fb7d
:1023f000222532fce43533fd22e4735392fe25326c
:10240000c582c0e0e53334ffc583c0e0e532c39543
:102410008224f810af088583338582328008858353
:1024200033858232d2afcef0a3e520f0a37821e647
:1024300008f0a3defaeff0a3e58124faf8e608f04d
:10244000a3e608f0a3e608f0a30808e608f0a3e670
:1024500008f0a315811581d0e0fed0e0f8158115b4
:10246000811581e8c0e0eec0e0225392fe2532c51e
:1024700082c0e0e53334ffc583c0e0e532c3958216
:1024800024f910af08858333858232800885833331
:10249000858232d2afcef0a3e520f0a37821e60802
:1024a000f0a3defaeff0a3e58124fbf8e608f0a341
:1024b000e608f0a30808e608f0a3e608f0a31581f3
:1024c0001581d0e0fed0e0f815811581e8c0e0ee7e
:1024d000c0e0225392fe853383853282e0a3fee082
:1024e000a3f5207821e0a3f608dffae0a3ffe0a33c
:1024f000c0e0e0a3c0e0e0a3c0e0e0a3c0e0e0a350
:10250000c0e010af0885823285833380088582322f
:10251000858333d2afd083d0825392fe02112953e8
:1025200092fe853383853282e0a3fee0a3f5207816
:1025300021e0a3f608dffae0a3ffe0a3c0e0e0a3f8
:10254000c0e0e0a3c0e0e0a3c0e010af08858232a5
:102550008583338008858232858333d2afd083d0a0
:10256000825392fe22c0925392fec0d02532c58281
:10257000c0e0e53334ffc583c0e0e532c395822473
:10258000f210af08858333858232800885833385d6
:102590008232d2afc8f0a3e9f0a3eaf0a3ebf0a334
:1025a0007921e709f0a3d8faecf0a3edf0a3eef05f
:1025b000a3eff0a3d0e0f0a3d0e0f0a3d0e0f0a32d
:1025c000e520f0a3e5f0f0a3d0e0f0225392fe85e1
:1025d0003383853282e0c0e0a3e0f9a3e0faa3e010
:1025e000fba37821e0f608a3dffae0fca3e0fda35b
:1025f000e0fea3e0ffa3e0c0e0a3e0c0e0a3e0f5bd
:10260000d0a3e0f520a3e0a3f5f0e0a3c0e010af75
:10261000088583338582328008858333858232d270
:10262000afd0e0d082d083f592d0e0f8d0e032e5b0
:1026300084f0a3e585f022e0a3f584e0f58522741b
:10264000048006740280027401c0e0f40412239432
:10265000d0e01221fe227404800a74038006740202
:1026600080027401c0e0f404122394d0e012220b23
:1026700022d083d082c5f0e493a3c5f0c395f0f5d2
:10268000f0e493a3c395f04005e5f0048001e47500
:10269000f002a42582f582e5f03583f583e493a367
:1026a000c0e0e493c0e022d083d082e9c0e0e493ac
:1026b000a3c386f0c5f095f0f908e493a386f0c5ae
:1026c000f095f0700be493a3c3994005e9048002f0
:1026d000a3e475f002a42582f582e5f03583f58345
:1026e000d0e0f9e493a3c0e0e493c0e022ffffff51
:1026f000c0e0c0d075d008c092c082c083c0f07561
:102700009800e5a8f8c2af5392fe9004e1e0d2e150
:10271000f0753400e8a2e7e433fee8a2e792af12d6
:1027200012f2d0f0d083d082d092d0d0d0e032c09c
:1027300082c0835392fe9004ade4f0a3f0a3f0a313
:10274000f0d083d0822274f712246a79001219fa29
:102750009003ef12395ceac398f8eb99f9e8240486
:10276000fee439ff9003fc1230c1c3ee9cef9d40a4
:102770002c9003fa1230c19003fee02af8a3e03b4c
:10278000f9e8c39cf8e99df99003ef1230d4a3ec6b
:10279000f0a3edf09003fcecf0a3ed80239003efa9
:1027a000122c5a9003fc122dbf9003fc12395c903e
:1027b00003f11230d49003f8e07004740280011425
:1027c000f07aed7b0312396f800ff085328285330a
:1027d0008312263774021223797f0202251f74f7b1
:1027e00012246ae9fe9003f9e0f8ee600924fe6025
:1027f0001d14601a80329003f6e0a2e35009e860ed
:10280000279003f9148020c2e2f0d2e380199003ec
:10281000f6e0a2e2500c740868600d9003f9e00441
:102820008005c2e3f0d2e2f09003f7e07008900375
:10283000f574fff0804990600a1229e649703d90d6
:10284000618fe0c0e09003f9e0f87408c398f8d015
:10285000e0b800028004c313d8fcf52174ff6521a1
:10286000700990600ae4f0a3048010e5212401f8c7
:10287000e43400f990600ae8f0a3e9f01227460278
:1028800027d974f712246ae9fe24fc600624fe604e
:102890002a800d9004c7e06401705d121712805801
:1028a00090041ae064017013900414e4f0ee700bcd
:1028b0007b091231c5fa7900123cd5900414e070fe
:1028c0000890041274fff0802f90618fe0ff790070
:1028d0001219fa8b22a922900416e02af8a3e039f3
:1028e000f9740f5ffae82af8e439f990040c123011
:1028f000d47a0a7b0412396f0227d974f712246a3a
:1029000074fe12239412262f9004641229e62412d6
:10291000fae439fb90605ce060088a828b83e0d245
:10292000e1f0e82430fce439fde82432f584e439b0
:10293000f58590605ae0700690605ee0603a8a82a9
:102940008b83e0a2e1401dd2e1f0e82422f582e48d
:1029500039f583122c501223508c828d83e521f09f
:10296000a3e522f0e40592f0a3f079008532828598
:1029700033835392fe0227d1e8241ef582e439f511
:1029800083123953858482858583e02ef0a3e03f4e
:10299000f08c828d830592e0fca3e0fdc30592e0fc
:1029a0009ca3e09d50c488828983a3a3a3a3a3a36f
:1029b000a3a3a38582848583858a828b83e0a2e199
:1029c000500474088002743e0592f07b028882896c
:1029d000830592a3a3a3a3a3a3a3a3e0fa79001260
:1029e0003cd579018086123960e82274f512246a98
:1029f00074fe12239412262f1230a1f584e43ff5c1
:102a0000850592e0fc7003022c4bee242ef582e447
:102a10003ff583059212395c8e828f83a3a3a3a313
:102a2000a3a3a3a38582238583248e828f83a3a35c
:102a3000a3a3a3a3a3a3a3aa82ab83ee2434123738
:102a40000f687003a3e069702d74026c7003022b91
:102a5000e474016c7003022ae4740c6c7003022ca1
:102a60004b740d6c7003022c4b74096c60258a82c8
:102a70008b8374228059ec14606a147003022be477
:102a800024fa601c14600c146046147003022c2796
:102a9000022c4b906008e0a2e65003022c4b8030e1
:102aa000ee2439f582e43ff583801388828983a37d
:102ab000a3a3e064037003022c4b8882898312294c
:102ac000e64970e78a828b83e0641370037416f022
:102ad0007b02852382852483e0fa7900123cd57934
:102ae00001022c4dee24551233fcee244cfce43f45
:102af000fdea24fff521eb34fff522e521687003a0
:102b0000e522697075ee244d122ce38e828f8312bc
:102b10002c588c828d83e025e0f8e433f9e8240317
:102b2000f85001098e828f83a3a3a3a31230d590fe
:102b30000495e0a2e050098e828f83a3a31230d0c7
:102b40009004b6e4f0a3f0a3f0a37402f09004950f
:102b5000e0a2e04003022c4b906062e4f08c828d96
:102b600083e0f875f0e2a4c8aaf075f004a42af98d
:102b7000e81230961230d4022c4bea687002eb69ee
:102b80006003022c4b75210975220078211226431f
:102b9000ee241bfae43ffb121e2c740212237990e0
:102ba0000495e0a2e05007eefaeffb123408e405ca
:102bb00092f0ee2422f582e43ff5830592122c5028
:102bc000122350ee2430f582e43ff583e521f0a393
:102bd000e522f0ee2432f582e43ff583e4f0a3f041
:102be0007b08805ae8240108500109ee245c123762
:102bf0000f687003a3e06970527521057522007893
:102c000021122643ee2457fce43ffdee2424fae48f
:102c10003ffb121e2c7402122379eefaeffb1217ff
:102c20000ce40592f08024eefaeffb1212f8e405b2
:102c300092f00592900495e0a2e0500f7b07852367
:102c400082852483e0fa7900123cd579000231d7dd
:102c5000122deb7403782122a3a3e028f0a3e0391e
:102c6000f02274f812246a74fe12239412262f1292
:102c70002cd81229ebe970501228fbe9704ae58440
:102c8000242ef582e43585f583e02401f0a3e034b9
:102c900000f0906008e0c0e0e5842436f582e43579
:102ca00085f583d0e0f0e584241ef582e4358512b5
:102cb0002ce70592a3a3e028f0a3e039f005929059
:102cc000046412340212396f8532828533831226ee
:102cd000377402122379804a900464e0f584a3e0fb
:102ce000f58522f582e43ff583122ced22e0f8a36e
:102cf000e0f9e828f8e933f92212372ff582e43faa
:102d0000f58312371712179cee241ef582e43ff567
:102d1000831230ad24fcf8e934fff98e828f8312e0
:102d200030d07f0102251f74f712246a74fe12232b
:102d30009412262f9004d41239699004d4e0f8a399
:102d4000e0f5838882a3a3ac82ad839004bbc82442
:102d50001ef584e438f5850592e0f8a3e0f9e8284b
:102d6000f8e933f9900497e0f521a3e0f522122d5c
:102d7000d50592e028f8a3e039f98c828d831230d2
:102d8000d49004b6122dc88c828d83122dbf90046e
:102d9000b8122dc87a207b4e1222d8882189228c25
:102da000828d83e09521f0a3e09522f09004bd127e
:102db0002dc8e828f8e933f9e812308e0227cac393
:102dc000e098f0a3e099f022123960900497122d58
:102dd000eb122dd522e88521f0a4c8aaf08522f0b7
:102de000a42afa8521f0e9a42af922e0f521a3e03a
:102df000f5222274f312246a74fe12239412262ff1
:102e00001230a1f523e43ff524852382f583e064a5
:102e10000c7011906008e0540360098523828524ba
:102e200083740df0ee2412f584e43ff5850592e0fd
:102e3000a2e35008c2e3f005920230728e828f83c3
:102e40000592a3a3858221858322906062e0600eb3
:102e500079101219fa852182852283123969122983
:102e6000ebe9600302307b1228fbe9600302307b50
:102e7000906008e0c0e0ee2436f582e43ff583d0b0
:102e8000e0f09061d5e0f89061d7e06805926005c8
:102e9000e0d2e28003e0c2e2f005929004b812347e
:102ea00002906062e06016ea24c0faeb3437fb124d
:102eb0003caa9004bd1230ad12308e8012123c94a8
:102ec0009004bd122ce9906064e028f0a3e0391270
:102ed00030c724fff0a3e034fff0ee242b12370fad
:102ee0009004baf0ee24201233fcee242ef525e4f3
:102ef0003ff526ee245cf584e43ff585ea4b70034c
:102f0000022fb0900499e0f8852382852483e0fca9
:102f1000702b1230b26003022fb0ee24391230b59c
:102f20006003022fb0e8a2e05003022fb0ea2401b0
:102f3000f8e43bf9900497e8f0a3e9805d740d6c28
:102f4000706e1230b27069ee24391230b57061e8db
:102f5000a2e0405c858482858583852584852685dd
:102f60000592e0f8a3e0f90592e0c398f8a3e09990
:102f7000f9e824ff18e934fff9ea24010a50010bab
:102f8000c398eb999004975006eaf0a3eb800b12dc
:102f900030d485238285248374021230c7f8a3e0dd
:102fa000f99004bb1230d4eefaeffb122d27805ab1
:102fb0009004977401f0a3e4f0ee241e122ce38534
:102fc0002182852283122c5a9004b612395c852105
:102fd00082852283122dbf852382852483e0640ca1
:102fe0007028852582852683e02402f8a3e034003a
:102ff000f90592e0faa3e0fbc3e89ae99b400b8550
:10300000238285248374020592f08e828f835392eb
:10301000fea3a3a3a3a3a385828485838590606474
:1030200012395c7a717b021222d88922e82405f8d1
:10303000e43522f98584828585831230d48e828f8f
:1030400083a3a3a3a3123402858482858583e0f839
:10305000c3ea98eb99a2d265d0335007ea0592f003
:10306000a3ebf05392fe12395985258285268312ef
:103070002c5a90046412340212396f8532828533df
:103080008312263774021223797f0602251f12301d
:1030900096e8f0a3e92224eaf8e93402f9906064a2
:1030a00022900464e0fea3e0ffee240a22122ced3d
:1030b000e822ee2432f582e43ff5831230c1ec4d74
:1030c00022e0fca3e0fd22f0852182852283e0221c
:1030d000a3a3a3a3e8f0a3e9f02274f512246a7471
:1030e000fe12239412262f8031c2e51231c0c0e0b7
:1030f0009004c5e01231a5d0e0f09004c5e004f0e2
:10310000a3e004f0a3e004f09004c9e0700c7401a3
:10311000f07b007a007900123cd590605ae0f521ee
:10312000906002e0a2e050047800800590605de0cd
:10313000f89004c6e0fae52128f8e43400f9e86ada
:103140007001e960589004c5e0f52374012523540b
:103150007ff521e5231231a5e0f808089004c5e0c9
:1031600028f074802521f582e43460f5830592907f
:103170000464e0f8a3e0c82408f584e438f585e0a9
:10318000a2e70592e040030230e9d2e5f01231b740
:1031900024db1231c0fa1231b74a0230f98532828b
:1031a000853383803b1231a922547ff8748028f53f
:1031b00082e43460f583229004c5e01231a9e02254
:1031c000f01231c522900464e0f8a3e0c82408f5a9
:1031d00082e438f583e0228532828533835392fe80
:1031e00012263774021223797f0402251f74f51208
:1031f000246a74fe12239412262f892105929004ca
:1032000064e0f582a3e0f583858284858385a3a3aa
:10321000a3a3a3a3a3a3e0a2e740469004c8e0f8b9
:10322000906054e0c398f5229004c8e02522f0aee7
:1032300082af838011ee2439fae43ffb12162eeaa6
:103240004b600312183885222374ff2523f52204ce
:1032500070e3e521a2e640097900eefaeffb1217d0
:103260009c0231d7c0e074f11225658535c675a77b
:103270000075a1007950121a187f010225ccc0d028
:1032800075d01875bf00d0d032c0e0c0d075d0184e
:10329000c092c082c083c0f08535c6e591fe759ba3
:1032a00000f4f5915392fe906002e0a2e0500478a1
:1032b00000800278087900e844015e60031230da89
:1032c000eea2e55004f91231edeea2e75029e5a88f
:1032d000f8c2af9004e1e0d2e0f0753400e8a2e774
:1032e000e433f9e8a2e792afe594a2e240097594cd
:1032f00003e594a2e250faeea2e640030233c9903d
:103300006061e0f99004c6e4f09004c8f0900464b1
:103310001234028a828b83a3a3a3a3a3a3a3a3e053
:103320002410601224fc600924fc700f1227de8038
:10333000661228828061121652805c900494e060cc
:10334000051460148023906060e06480601be0c01e
:10335000e01233e6d0e08010906058e0f890605cb6
:10336000e028f81233e6e028f0906060e0648060c6
:1033700016e0c0e0900464e0f8a3e0c82413f582ee
:10338000e438f583d0e0f0900495e0a2e050051217
:103390002df38003122c62906059e0f89004ade0a8
:1033a00028f0906058e0f89004aee028f090605a61
:1033b0001233dd90605e1233dd90605ce0f89004c3
:1033c000b0e028f01216408004a2e75003123a5ae7
:1033d000d0f0d083d082d092d0d0d0e032e0f8903c
:1033e00004afe028f022ea242cf582e43bf583e0e8
:1033f000fa746f2af582e43404f58322f582e43fff
:10340000f583e0faa3e0fb22c082c0835392fe90d2
:1034100004b8e4f0a3f09004b6f0a3f012165890ac
:1034200004bdeaf0a3eb02274074f712246a74fe8d
:1034300012239412262f9004641230c1123959ecd1
:103440002429f582e43df583ec242bfae43dfb8a44
:10345000848b85740168497012e0f80592e028fabf
:10346000c39425402974db2afa8023e0f521e885fe
:1034700021f0a4f8aaf08521f0e9a42af90592e048
:10348000fae82af8e439f97a257b001222d8eaf022
:10349000ea131313541ff8ec28f8e43df9e8242448
:1034a000f582e439f5830592e0c0e074075af8d05c
:1034b000e0b800028004c313d8fca2e040288005d5
:1034c000e8cac39afaec24e5f582e43df583e0f816
:1034d000eac39850ebec2af8e43df9e824c0f58201
:1034e000e439f583e0faec242cf582e43df583ea37
:1034f0000227ca74f612246a74fe12239412262f2d
:1035000090041be09060026004740e8002740ff05f
:10351000900415e0906001f09009471221e6906157
:10352000951221f21217a890041ae0f52174016592
:10353000219004137040e05402f97a1c7b041216a7
:1035400076900413e0a2e050097aa17b0475214033
:1035500080077a9b7b04752100a2e150047e808065
:10356000027e0075230678231226477c1c7d04e525
:10357000214e44018068e0a2e050087aa17b0478e3
:103580004080067a9b7b04780005929004411226c5
:10359000627c227d04744b2521f582e43409f58395
:1035a0000592e048f912167c740112237990041aee
:1035b000e0f86005740268702e900413e0a2e050f9
:1035c000087aa17b04784080067a9b7b047800050a
:1035d000929004611226627c427d04e84404f91250
:1035e000167c7401122379900413e0a2e0e433f90d
:1035f00012167075910090041be090618260047453
:10360000c8800274c0f085328285338312263774f5
:10361000021223797f0302251fc082c0835392feca
:10362000906002740ff09003f8e004f064037002fd
:10363000e4f0e02425906000f09009471221e69024
:1036400061951221f29003f6e05420f912167012df
:1036500017a89003f6e0a2e15004d2f08002c2f075
:10366000a2f0e43390600cf09003f6e0a2e1503554
:1036700075d90da2e55004784080027800e8440333
:10368000f5d9e0a2e550067aa17b0480047a9b7b01
:10369000047906121646740675d9001470fae5e12d
:1036a00070fc75e19575910090618274c1022740ac
:1036b00074f812246a74fe12239412262f123772a1
:1036c0001217a81237681221e69061951221f212a2
:1036d000378112342912372ff584e43ff58585842c
:1036e0008285858312371712179cee241212370f2a
:1036f000a2e250180592e0f8a3e0f58388820592d3
:10370000a3a3e02402f89061d5e028f0022cc8f5cc
:1037100082e43ff583e022123960ee2437f582e43b
:103720003ff583e8f0a3e9f07900eefaeffb22ee33
:10373000242c12370f906000f07591009004d3e0b4
:10374000906182f0ee24392274f812246a123772e2
:103750001217a81237681221e69061951221f21211
:103760003781123429022cf9ee2414f582e43ff556
:103770008322900464e0fea3e0ff906002740ff0e7
:1037800022ee243612370f906008f0ee241812371c
:103790000f906005f0ee241912370f906006f0eede
:1037a000241a12370f906007f02274f812246a125c
:1037b00037721217a81237681221e690619512210c
:1037c000f2123781022cf974f112246a74fe12236a
:1037d0009412262f7521007522007c6b7d04801fba
:1037e000888289831239538c828d83eef0a3eff0a7
:1037f00088828983e521f0a3e522f0882189228c43
:10380000828d83123953ee4f70378c828d8312393b
:10381000698a828b83e4f0a3f0aa21ab22853282ed
:1038200085338312263774021223797f0802251ffd
:10383000e5232527f8e5243528f98a828b83122c85
:1038400058eef8eff988828983a3a38a848b8505d3
:1038500092a3a3e0f523a3e0f5240592e0c395230a
:10386000f523a3e09524f5248a828b83a3a3a3a345
:10387000a3a3e0f525a3e0f526c3e5239525e524dc
:103880009526a2d265d033403e8a828b831230d4f3
:103890008a828b83a3a3a3a385828485838512391f
:1038a0005cc3e52398e52499a2d265d033500d85f9
:1038b0008482858583e523f0a3e524f08c828d83c3
:1038c000eaf0a3eb02381888828983a3a3a3a3a3f9
:1038d000a3e0f527a3e0f528c3e49527f525e495b3
:1038e00028f526c3e5259523e5269524a2d265d0a3
:1038f0003350288a828b83a3a3a3a3a3a3a3a3e00b
:10390000a2e7500302383088828983a3a3a3a3a32c
:10391000a3a3a3e0a2e750030237e088828983a330
:10392000a3a3a3858284858385c3e49523fce495c2
:1039300024fd123953c3ec9eed9fa2d265d03350c3
:103940000b858482858583ecf0a3edf0e8fce9fd2e
:103950000237ffe0fea3e0ff2290049712396022b5
:10396000e0f8a3e0f9229003efeaf0a3ebf0227471
:10397000f712246a74fe12239412262fea4b603148
:10398000a2afe433fec2af1237c78a828b838016a0
:10399000aa82ab838582848583850592e0f582a324
:1039a000e0f5831237c7e582458370e4eea2e0922a
:1039b000af0227cb74f812246a74fe1223941226e5
:1039c0002feaf8ebf9e8497003023a55a2afe43365
:1039d000f521c2af90046be0faa3e0ca2408f58297
:1039e000e43af583e06015a2e7501188828983a349
:1039f000a3a3a3a3a3a3a3e0a2e74053900464124c
:103a00003953eefaeffb8a828b83a3a388848985de
:103a10000592a3a3e0fca3e0fd0592e0c39cfca3f8
:103a2000e09dfdc3ec9405ed123c004022eefcef5e
:103a3000fdec2412f582e43df583e0d2e4f08882c7
:103a4000898312396990046b1230d479018008e5ba
:103a500021a2e092af7900022cc874f512246a7496
:103a6000fe12239412262f79001219fa8a238b242e
:103a70007977121a189061b1e4f0e070f87401f0ef
:103a8000e0640170f890046b12395c9004641230a9
:103a9000d4e8497012123c08e594a2e24003023bcc
:103aa000f8759400023bf8888289831234029004ee
:103ab0006b12396988828983a3a3122deb888289ce
:103ac00083a3a3a3a3e02521f8a3e03522f9e824ea
:103ad000fdfee934ffff9060607480f0e521c3953e
:103ae00023e5229524f9e5232401fae43524fb1289
:103af0002cd8858482858583a3a3a3a3a3a3a3a392
:103b0000e02410604d24fc600624fc6008806312f1
:103b100034f3023b9b90046b122cdbe584458560fb
:103b20002c0592a3a3a3a3a3a3a3a3e0a2e7401df4
:103b3000123bfe50188a218b22c3ea9eeb9f40085d
:103b4000ea2401fee43522ff059212396612361985
:103b50008049123bfe50168a218b22c3ea9eeb9fbe
:103b60004008ea2401fee43522ff1239661217ae3e
:103b70008029900495e0a2e050051236b0801ca97f
:103b800085e5842412f582e439f583e0a2e4500847
:103b9000c2e4f01237aa8003123748aa21ab227977
:103ba00030121a0ceefaeffb7940121a0c7954120b
:103bb0001a1879001219fa8a238b24e521c3952358
:103bc000f8e5229524f9c3e89401123bff500c124a
:103bd00017c0e5e170fc75e121801d900367e0a24c
:103be000e04012aa21ab22121a069004b21221c29e
:103bf000123c0880031217c01218c802319dc3e995
:103c00009400a2d265d03322e5a8f8c2af9004e1b7
:103c1000e0c2e0f0753400e8a2e7a2e792af22002c
:103c2000853487c2af22c0e0c0d075d018c092c022
:103c300082c083c0f074fc1223635392fe9004e2ae
:103c4000e0601c12166a900367e054117008e5c624
:103c500054384487f5c69004e2e4f0c2c78020c21d
:103c6000c7aa32ab331217bae9640170129004e2aa
:103c70007401f08532828533831221b61218bc7527
:103c800034007404122379d0f0d083d082d092d043
:103c9000d0d0e03275c3007420c39afa744e9bfbf7
:103ca000eaf5a2ebf5a35392fe22c02175c301e50c
:103cb000a2f521e5a375c300f9e5212420f8e93434
:103cc0004ef9e8c39af8e99bf9e8f5a2e9f5a3d023
:103cd000215392fe2274f512246ae9feeaff8b2139
:103ce000753400a2afe433f522c2af900585e0f54c
:103cf0002474012524540ff523900584e065237076
:103d0000057900121a72e52475f003a4f8a9f0747d
:103d10001228f8740539f9e82442f582e439f5836c
:103d2000eef0e82443f582e439f583eff0e824442b
:103d3000f582e439f583e521f0e523900585f0e58a
:103d400022a2e092af7f0402251fc082c08374fcd0
:103d5000122363e5a8f8c2afe595853282853383e7
:103d60005392fef0e596c0e074011223cdd0e0f04e
:103d7000e597c0e074021223cdd0e0f0e8a2e7a2fc
:103d8000e792af74031223cde4f08532828533834a
:103d90001221b67404122379d083d08222c0e0c0ed
:103da000d075d018c092c082c083c0f0121bec1234
:103db0003d4a9006171221c2e58955ab90061bf0cb
:103dc000e58090061ef090061be0f4f5899062d025
:103dd000e0f8a2e1502790061be0a2e5501f53ab8c
:103de000df9062d0e0a2e0e433900621f090061b61
:103df000e0c2e5f07b307a007906123cd590061bd4
:103e0000e0600e7b007a007906123cd57900121b27
:103e1000f8c2c5d0f0d083d082d092d0d0d0e032da
:103e2000c0e0c0d075d008c092c082c083c0f0127c
:103e30001bec123d4a9006171221c2e58a558df8f7
:103e400090061cf0e59090061ff0e8f4f58a7b01df
:103e50007a007906123cd57901121bf8c2eb80b3c7
:103e6000c0e074f01225659061a9e06017c2afe56b
:103e700089f8e5abf975ab00e4f090624bf0888906
:103e800089abd2af900626e0640f7012e5c7f890b8
:103e90000368e0f5c790ff1ce0f4f5ae88c7e5bb0a
:103ea000f8e5baf521e8fb900626e025e0f8e433d2
:103eb000f9742728f582740639f583e521f0a3eb20
:103ec000f0900626e02410fb7a007906123cd5e536
:103ed000a8f8c2af9004e1e0c2e2f0753400e8a2b5
:103ee000e7a2e792af7f020225ccc0e0c0d075d038
:103ef00018c092c0f0e5d1f875d100c2c0a2e3505d
:103f0000097b037a007904123cd5d0f0023e19c037
:103f1000e0c0d075d010c092c021c022c082c08342
:103f2000c0f05392fe90078f12402a602a90074af1
:103f3000e0700c7401f07b007a007904123cd5ee3d
:103f400090078ff0e5c1c0e074912521f582e4343b
:103f500007f583d0e0800be5c4a2e6500690074940
:103f60007401f0024019c0e0c0d075d010c092c0fa
:103f700021c022c082c083c0f0c2e95392fe9007e4
:103f80004ce0fa90074be09a543ff86029744d2ab0
:103f9000f582e43407f583e0f974012a543f900771
:103fa0004cf089c190078de06870197b027a007926
:103fb00004123cd5800ee5a8f8c2af9004e1e0c23f
:103fc000e31240988053c0e0c0d075d010c092c0ba
:103fd00021c022c082c083c0f05392fe9008191203
:103fe000402a60299007d4e0700b7401f07b00fa3e
:103ff0007904123cd5ee900819f0e5f9c0e0741b85
:104000002521f582e43408f583d0e0800be5fba29e
:10401000e650069007d37401f0d0f0d083d082d060
:1040200022d021d092d0d0d0e032e0f52174012509
:1040300021543ffea3e06e22c0e0c0d075d010c076
:1040400092c021c022c082c083c0f0c2ea5392fe57
:104050009007d6e0fa9007d5e09a543ff8602974ab
:10406000d72af582e43407f583e0f974012a543f36
:104070009007d6f089f9900817e06870197b027aea
:10408000017904123cd5800ee5a8f8c2af9004e196
:10409000e0c2e41240988081f0753400e8a2e7e4c1
:1040a00033f9e8a2e792af22c0e074f012256590e0
:1040b0006206e0f8900871e048f0906202e0543f38
:1040c000f52175220074047821122350900871e0c4
:1040d0004521f0a3e04522f0906204e0543ef52132
:1040e00075220074097821122350900872e045224d
:1040f000f0900871e054046007e054fbf0121d607a
:10410000900872e054016013e054fef0900880e0e3
:1041100060097b037a007907123cd5121d90900844
:1041200072e05420600de054dff07b027a007907e2
:10413000123cd5758b00c2e87f020225cc033f00fc
:1041400000030004280d98089007900194011b01ba
:1041500095111b08f00939821f0ea4fecd8221069d
:1041600022fb381818162118f0ef3818f2ed38280d
:10417000f2eb3868f003392a1fe73f08f00428ba49
:104180003868f0393c08f1053c88f1173ca8f10e7d
:104190003ce09f2c1f0128104a291fd63f15d00351
:1041a0003827d00938009004289f3f012815410185
:1041b000980128014a25d01f38041f831f0ea4fe32
:1041c000cd042205381421202807a0083f062868be
:1041d0001527d0e939202807d0f238832178f10259
:1041e00038042188f1083d0628a14001f004288404
:1041f00038042807a005284d1528f1163c68f1144d
:104200003d77cf1240599202d80f3912d007396941
:104210009222d00439799242d004380528ef151e35
:104220003fc09f04286c3f08f1233c88f1203d09e2
:104230004028f1103d4540f7c759f2083d9303135c
:104240001183e1b9f00f3c23e00d3f09d8ea38f9ba
:10425000c30b3f68f1033d59f2f23c09d8f9390527
:1042600028bd150528f01501900128214a051f4891
:10427000f00c3c08f10a3868f1033c98f106390c5f
:10428000960528f9150228843f47a00c960528f3c7
:1042900015531f0528e31507288ced0528ec15019b
:1042a000280195711b01280ce40528e515511f888c
:1042b000f10b3808f1073868f1093901282142016a
:1042c000f00b3947d009383521063f28f10338383b
:1042d000f10339351f341f04280ce047d00339039c
:1042e000280ce80528c815571f28f00638561f81e6
:1042f0001f021f38f0063930215b9005283b15fd61
:104300003f88f1033d0428f7150528811547d01390
:104310003808f10f392c470cf00c38c403b4125c88
:10432000110c3e04f00a38c103802801a0411b068d
:104330003f3021043f07284ced4c1b5b9047d017c2
:104340003827d00328e8390ea4fecd02220d39000b
:104350002208381021002914e00328dd3c4c1bf111
:104360003f05289e15ee3f46181221033f052802ff
:104370001588f13039052811150128fb413021003d
:10438000291be00a3d0428f61505280715f6c35138
:1043900092166a3b906b080428ed150428fe150b55
:1043a000f0fb3917d004382d1f0128c43f03282102
:1043b0004701f008390328314701f00439a29580fc
:1043c00090033fc29500920328b615201b5490011c
:1043d00028b33f08f10539052111900128214a38f9
:1043e000f103390021023f302110216a030428c261
:1043f000156b033141224128f1093d02f00239f2e7
:104400009101f00b39ff28f191083f02f002395277
:104410009201f00339ff28f193f7cb1b060239070d
:10442000a4b20c073d47d003286e382490032875aa
:104430003f1690b6080428b115a6030428ae153b14
:10444000e0f7ce28f1703c012807a0f090a00668a4
:10445000f1323d149030f0053938f103285e380709
:104460003f50f003285a3958f10328573838f104df
:10447000380328ab15033f03288915032875150158
:104480002807d0033907a1563f424130f00c3907c5
:10449000a112d0033807d84e3887a0c14041d04a76
:1044a00038f7ce483f38f1033822d0443807d84295
:1044b0003907a1403f78f1123847d02d3800f0037a
:1044c0003860f00639c14011d0073887a0113f107d
:1044d000f0033820f0ab3977cf0b3f00f0033810f2
:1044e000f0a539414181d0043903285015093f0313
:1044f000286c1568f10539414141d0023907b810df
:10450000f0063903283115012807d0033807d812df
:104510003907a1103f40f00228fc39032814150781
:10452000d8f838083fa10383403112310511d00279
:104530003907a14bf0063c04281d1504282e15fa56
:104540003f042818151bf0fd3d38f103380328a15e
:1045500015f7cd0328214701f0053903283147011c
:10456000f0033807a2f7ce224082d00a38060304af
:10457000281415069376062611960404280e157144
:10458000034112002871c021070438e7cf41980485
:104590003f17d0043951980728214817d00538f221
:1045a00095202800901d3f07d20438c2950092182c
:1045b0003f07d10438d2950094133f07d40438e262
:1045c0009500980e3f809028f10a3d3190a1063168
:1045d000f0063903a4b2950228aa1500a1a29502fb
:1045e00028a615201b28f1633d08f10a3901280788
:1045f000d00739072851411128c14a012807a017bf
:10460000d20539e3cf8ad0023813a007d20539b3d7
:10461000cf4ad0023843a083d01e39310311123162
:104620000521d00739319907282148002915e013c1
:104630003f529502287c15454003d10d3942950221
:10464000287615281f21990728214803d2043862ab
:104650009502286d1573cf834808f1093977cf1774
:10466000d0063907d203390ad1023887a03490071f
:10467000d2073807d803383090543f07a8023ff7d5
:10468000c718f15a3927d04c39314011d0493987f0
:10469000d0073917d0453907d203390ad141380537
:1046a000f04b39414001f0483850903b3f68f115dc
:1046b0003878f13938149017d03d3907d23d398711
:1046c000d003383490393f07d13739119001282170
:1046d0004a409003286e15253f47d01c3824900788
:1046e000d30c3911900128214a87d0083851440051
:1046f0002911e0043a514c023877cf17d01b398783
:10470000d003383490193f07d31739c14021d01452
:1047100038073f17d00f3907d303383090023f00d6
:104720009044900a3f249017d0053907d3053934b7
:1047300090033fa09f44900221c190511b812134de
:104740002124f0083927d004390c9cfd2bae3f10f2
:10475000904490b7cf34f00e3953210328e195717e
:104760001b541f0f28cc9506282141f1c081111c34
:1047700009143f0190511b0728f19f711b802114e0
:10478000f00128863854f0fd2b0a380128ad3f543b
:104790001f032864151028cced03286d15762178a9
:1047a00021501f0128a29a217001b2218001b2215b
:1047b000802ce30328601574210128ace408f1077c
:1047c0003c88f1033d0228971503282115011f019c
:1047d00028349d03285015201f002168f0093d064c
:1047e0009058f003390728364102289315fa3f07fd
:1047f00028504078f10439331f321f042150000043
:10480000dc01287c3828f1103d8340f7cb310311bf
:1048100012310521d0033903d1033900d8103807ec
:10482000a41b901a90163f00d80128683998f10708
:10483000394b700128e2412b0800288e3f102807d1
:10484000a04b701bf0fc2bed3c4a70224128f1304c
:104850003d02f00239f29112e0b20cfc2be23c4135
:104860009031061111ff2be29f3204520022111adf
:10487000042a043240002862c018f1033927d00d01
:104880003922f0093907280141b109002921e0093d
:104890003a0aa1073f42f00339face033f62f0f92a
:1048a0003818f1253977cf0ad1223887a0203f0266
:1048b000f00239529212e0b20cfc2bb33c68f112b8
:1048c0003d38f1153887d013390128314201f00ff6
:1048d00038402807a00728914231c0c1a00728917d
:1048e0004a063f02280190710621121a04ff2bf29a
:1048f0009fb2084be0a60302280c152603022809e4
:104900001568f1293cfbf0273c62904670022801b3
:1049100015d2370428609662904670062d0128f95a
:1049200015c23778f11839d04000d81538dbf013ac
:104930003c829046700128ed15d237764400d403ae
:1049400038060e023f060d41700128e315417086be
:10495000120128df153290b20c053d46700128d9ae
:1049600015fb3f08f1063941721128c14a01280799
:10497000a0ef28f7cf28f11e3d83403090a00631ec
:10498000031112310521d003398295043f30f00420
:104990003972950028cc1553c843d0023823a0079c
:1049a000d4023803a130f0023903a2834892950063
:1049b00028be1506900bf005380128ab15591ffbd2
:1049c0003f0ea4fecd0122043902286a15fa3f5594
:1049d0001f1121031f249008f10f390ad1033987d1
:1049e000d02438314011d0213905f021394140011e
:1049f000f01e3850901b3f48f1073828f103385813
:104a0000f1063987d0143877cf1490113f78f1052b
:104a10003911900128214a093f98f10939829500fe
:104a2000288a15281f5490033f009044900ea4fe3e
:104a3000cd0322043902283415fa3f13212c180122
:104a4000210321741ff1900000f1370190511b07e1
:104a500028f19f711b802132210728914231c00724
:104a600028914abf28f7cf28f1063c88f1043d92ef
:104a7000955e15281f44f0383814f00a3854f0fbbe
:104a80002b8e3801280ce40128f615fc2b023f017f
:104a9000289015009027d0283902d8083838f124fa
:104aa00039329001289215e237193f19e089f20452
:104ab0003c38f11a39599238f10339012886151218
:104ac000409103002951e2120e12d0f038012886dd
:104ad000150128b91512400128911531990728218f
:104ae000482c18fe2b553f0128104a0028a915fb19
:104af0002b2b3ff09f043fd09f023fb09f0028d058
:104b0000152c1ff23f28f1053c68f1033d14900578
:104b10003f2090023f109044904198072821483848
:104b2000f1fe2b0a380028b515fe2b063f21701127
:104b3000e021800200012821410728214821781125
:104b4000e021880200f7c7761571033112a1050133
:104b5000d4023907a80428649631150238f7c7042f
:104b600028c4f6fb3c0200fe28f7cf6415514171c2
:104b700011a10501d80339012807a064911f15036d
:104b800038fe28f7cfc4f1fb3c0200f7c75315519c
:104b900041022807a00ad40339fd28f7cf5111a1fb
:104ba0000501d4023907a8c49104286596071502a7
:104bb00038f7c7563124f2fb3c02000028db150011
:104bc00028ec15412d160c0200f7c73415d032d34e
:104bd00032234268f109394141904041d0043850b4
:104be000000306023f03033142022807a00ad4044f
:104bf000395100fd28f7cf1306449204286596002a
:104c000028b9150028ca155631ff28e19f407006c3
:104c10000c023813068ea0810064e044f5f83c00d5
:104c200029f4e2a4f2ed3c03f0023807a8d32fd018
:104c30002f02009bf0023c020007a12de002009829
:104c4000f10938102807d0033908f10438319907e1
:104c500028214808f10c39012807d00938072851c4
:104c6000411128c042010c0338072850491190080f
:104c70002807d005380628b148f728f7cf042807b9
:104c8000d005380628a148fb28f7cf3021291f027c
:104c900000311fff28f19f411b301f31210200020c
:104ca0002101210321532309380628d14001d112c3
:104cb000384198072821480b3f54230c385021f1e4
:104cc000910000f137741ff1900000f13768f00295
:104cd0003c2b1f0190511b81210728f19f711b80e4
:104ce000210728914231c00728914abf28f7cf32c7
:104cf0002134210200082807d007390628b14001d5
:104d0000f00438082807a0020004280d98fe2bf4b0
:104d10003f402807d00d390ea4fecd0122043900f2
:104d200028bf15fa3f661b112100291be00200076e
:104d300028a64a0ea4fecd012204390028b115fa96
:104d40003f01283142b10941e0053a08384bf00ce7
:104d500038ea3d0728a142611be73f0728914271cd
:104d6000cf0728914af73f0728914281a20728914f
:104d70004ada3f0ea4fecd0222043900289115fa2a
:104d80003f4618122100291be01bf00639581f0668
:104d900028e0400128004a020017d00a39312206d3
:104da0003817a0419807282148033f0728a6480242
:104db00000124038f1093802d8073991030029411f
:104dc000e2120e120d1248020047a07b280c9c1024
:104dd000215215ff2b5e15b7cf020059f20339633c
:104de00091083f69f20339e392043f79f2033943b2
:104df00096020004280d98fa2b143f02d40738912c
:104e000003002901e2117006286148020088f10ab6
:104e10003c012831410728814ab1460328314fa17e
:104e2000460f3f0728894a28f1063d3144032831bf
:104e30004f5140053f552851950328314f811103ab
:104e400028214f0200e3f3033cf190033f23e0519c
:104e5000920628614a0628434802007b21772141b7
:104e6000900000f137702175217a218cee041552e3
:104e70001f801f02004c1b001f47d0033827d0099a
:104e8000390ea4fecd002203390b15f73f10210285
:104e90000004280d9838f1fe2b2738fe2b3c3fd21a
:104ea0003202180119210601d41a3812181621628b
:104eb000f003392a1f2d3f12f2153822f22838fe4e
:104ec0002bef1568f0063c61900128114afe2bb8c3
:104ed000153021280304280d98f92b373f01d114f0
:104ee000381421202807d00d3878f1123904231006
:104ef00038714401f002398144002911e0714c08f5
:104f00003f202807a0053f01d20538152127a0d250
:104f10002f020011d00638102104280d98fd2bf324
:104f20003ff2ce5200121bf43f03060302020303ba
:104f30000206020303010502020100010101010151
:104f40000000030200000500020707000203010140
:104f5000010202010f000803050502070406080606
:104f6000060503040401030602020101090101020e
:104f70000101020100000003020201050502010116
:104f80000305000100020301000000020104040205
:104f90000302040104010074f51223fbeafeebff97
:104fa0008923e9c3941140037523108523217522b9
:104fb000007821122643121e2c74021223797410d9
:104fc00065236026852382aa827410c39af52195f1
:104fd000e0f52278211226437c007d00ee2afae4d7
:104fe0003ffb121e32740212237902552274f01212
:104ff00023fb74fe12239412262f8a848b8505923c
:10500000a38a828b830592e060062402606080653b
:1050100090064be4f00592e0f5250592a3f0752289
:1050200000240250020522e4c522f521e4f523f50f
:1050300024f526f527f5289009d978251220e79040
:1050400009dd7825122139740878251220b57821d8
:10505000792512214c9009e1782112215f900647b1
:1050600078211221a7ea2402f521e43b801b059256
:10507000e0700280fe12765b74fff0a3e4126264bb
:105080001277ef7405f0e4f521f52278211226431a
:1050900090064c12650379061267a21223f9740276
:1050a00012237985328285338312263774021223c4
:1050b000797f080224d374e81223fb74fe12239430
:1050c00012262f74fb1223638a848b85752d00753d
:1050d0002e008584828585837821122198e5c7c0ba
:1050e000e074041223cdd0e0f0900368e0f5c785aa
:1050f0008482858583a3a3a3a385822f8583301211
:1051000076b48a29e4f52af52bf52c78291220e7c4
:1051100090f7e81252c8f528740b78251220b5785c
:10512000297925121e9d50030252780592a3a3a34c
:10513000a3a3059290f7e41252c8740b78251220ad
:10514000b5782179251220d4eafee5215403fc70bc
:10515000030251e374031223cd74fff0740212238f
:10516000cd74fff074011223cd1252bd8c82aa823d
:105170007404125a6750057404c39cfe8e2575266c
:10518000007825122643ac84ad8574021223cde548
:10519000822afae43583fb121e2c740212237979d9
:1051a00004ac32ad3385212585222685232785242d
:1051b000287402782512209caa25ab261214308e62
:1051c00025e5842ef584e43585f585e4f526f52777
:1051d000f528782179251220d4852f82853083e027
:1051e000c39efeeec394044031eef9ac84ad8585d8
:1051f00021258522268523278524287402782512d7
:10520000209caa25ab261214308e25e52554fcf8e7
:10521000e58428f584e43585f58574035efc605edd
:1052200074031223cd74fff074021223cd74fff0c7
:1052300074011223cd1252bd8c25752600782512db
:105240002643ac84ad8574021223e9121e2c74022d
:10525000122379ac32ad338e25e4f527f528782179
:1052600079251220d47402782112209caa21ab2225
:105270007404f91214308006752d80752e017404a3
:105280001223cde0f5c790064be52df0a3e52e12d5
:1052900064f07407126a5a1226431267981223f9af
:1052a000740212237974051223798532828533833f
:1052b00012263774021223797f100224d374fff070
:1052c000853282853383f022e0f525e4f526f52743
:1052d0002274e81223fb74fe12239412262f74c04a
:1052e0001223638a828b838582848583850592a3ba
:1052f000a3a3a3e0fee5c7ff900368e0f5c790f71e
:10530000e8e0f525e4f526f527f528740b78251255
:1053100020b5eec3944140027e40059278291221c7
:105320009878257929121e9d400302540c85292165
:10533000852a22852b23852c248e2de4f52ef52f0e
:10534000f5307821792d1220d478217925121e9def
:105350005005e529f404fe90f7e4e0f521e4f52298
:10536000f523f524740b78211220b57829792112c0
:1053700020d4852921852a22852b23852c24740f6e
:10538000782112209ce521f5238523c7ac29e52a45
:105390004480fd8e82858225752600ec2ef521e461
:1053a0003df522c3e5259521e49522500c78251280
:1053b000264374021223e98049e525c39521f5258a
:1053c000e49522f526782512264374021223e91269
:1053d0001e2c740212237974012523f5c77821123b
:1053e00026437c007d80c3e49521fae49522fb747a
:1053f000021223cde5822ef8e43583f9e82afae992
:105400003bfb121e2c740212237980027e008fc790
:10541000ee90064bf0f525f582ac827d002401125a
:105420005752f526f5279009e578251220e77408ec
:1054300078251220b57821792512214c9009e97838
:105440002112215f90064778211221a7a832a933a3
:105450008821892278211226437a477b0679051212
:1054600067a21223f9740212237974400252a774be
:10547000f51223fb74fe12239412262feafeebff93
:105480007523008e828f83a3e0fb74ff6b601e7c0c
:10549000007d007a0479008e828f83e025e012621d
:1054a000351267a71223f9e970037523018e828fe5
:1054b00083a3a3e0fb74ff6b60347c007d007a0360
:1054c00079008e828f83e025e0fee433ff742d2e79
:1054d000f584740a3ff58505921267a71223f9e94e
:1054e0007004d2f08002c2f0a2f0e4334223e5233c
:1054f000a2e0500678807901800478007900125586
:1055000027740e126a5a1226431267981223f974ee
:105510000212237985328285338312263774021270
:1055200023797f030224d390064be8f0a3e9127895
:1055300098e4f0a32274ec1223fb74fe122394125d
:10554000262f74c01223638a848b85858482858587
:1055500083a3a3a3a3e0f8c394405004882180034d
:10556000752140e5c7f522858482858583782512db
:105570002198740f782512209ce525f5c785218296
:10558000ae828e237524007823122643858482857b
:1055900085837825122198ac25e5264480fd740288
:1055a0001223e9121e2c74021223798522c78584e6
:1055b000828585831221e690064b1221f2ee900639
:1055c0004ff02405e43400f526e4c526f525e4f57e
:1055d00027f528e0f529e4f52af52bf52c9009edbf
:1055e00078291220e79009dd78291221397408788a
:1055f000291220b57825792912214c9009f17825b6
:1056000012215f90064778251221a7a832a9338876
:105610002389247823122643eefc7d007a477b06fb
:1056200079091267a21223f97402122379744012c5
:1056300023798532828533831226377402122379c7
:105640007f0c0224d374f61223fb74fe12239412ef
:10565000262f74f912236312168e7f007e00ac325f
:10566000ad3374011223e9eef91219e8e9601c74f4
:10567000011223e9853282853383e0f9121682e92b
:10568000600890064b12626b800e0f0eeec39408fa
:1056900040cc90064be4f0a3f0ef1262701262a4cb
:1056a0007407126a5a1226437c007d007a477b06f3
:1056b00079071267a21223f9740212237974078002
:1056c0000e126a5a1226431267981223f9740212b4
:1056d0002379853282853383122637740212237927
:1056e0007f020224d374ec1223fb74fe1223941263
:1056f000262fe9fe8c258d2690064beaf0a3ebf0d1
:10570000eea3f0f529f582ac827d002403125752f6
:10571000f52af52bf52c9009f578291220e7740865
:1057200078291220b57821792912214c9009f9782d
:105730002112215f90064778211221a77825122691
:10574000437a477b0679071267a21223f974020293
:10575000562fe43400f522e4c522f521e4f523f5c3
:10576000242274f61223fb74fe12239412262f7443
:10577000fc122363ea14600614603b02581390067f
:1057800016e024026005146009800e90064b7484b4
:10579000800c90064b748a800590064b7485126ac3
:1057a000471226431267981223f974021223799044
:1057b0000616e4f0805d7e00aa32ab33eef91219d2
:1057c000e2e96048ee90064b12628190064cf0745c
:1057d000011223cde0540190064df074031223cd45
:1057e000e090064e12624a7480f0a374041264ead8
:1057f00014126a5a1226437c007d007a477b067990
:10580000081267a21223f974021223790eeec394d0
:105810000840a574040256cf74f21223fb74fe12e2
:10582000239412262f8922ebfeea600d24fb6029c7
:10583000147003025a0e025a2a900616e0fa7440b7
:10584000125a67400302596ee0f87440c398f52479
:1058500002597090061674fef0ee7003025a2a90f8
:105860000616e0a2e75027eec3944140047f408033
:1058700002eeff7cd67d05effb125a3f1267a7129e
:1058800023f9e9cec39efe7003025a2a80d9c3943d
:1058900004504ce0701605929009fd1226567b01cb
:1058a0007a007908121a2a7404122379900616e0f5
:1058b000f87404c398125a72500ae0f87404c3983a
:1058c000f52180028e21125a5cab21125a3f1267d9
:1058d000a71223f9e9cec39efe900616e029f0e058
:1058e000c394045003025859e0640470189005d61c
:1058f000e06003025853a3e0c3943d4008900616ad
:1059000074ff025858900616e0f89005d7e024047a
:10591000c398f8c39e5004882480028e24e8601e39
:10592000900616125a5cab24125a3f1267a7122334
:10593000f9e9f8e524687006900616e029f0e524f8
:10594000cec39efe900616e0fa9005d7e0790024bb
:10595000045001096a496003025859900616e0f99b
:105960007ad67b05121b26900616e40258588e2420
:10597000e524c39e5003025a0a8524257526007823
:105980002512264374d62afae43405fb121e2c7421
:1059900002122379900616e02524f0e0c394045007
:1059a00003025a2a9005d7e0fc900616e0faec2490
:1059b00004f8e43400f9ea98e499406e74042cf594
:1059c00024f97ad67b05121b26a824900616e0c37c
:1059d00098f07c00900616e0f8ecc39850bd8c82dd
:1059e000a882852425e82525fae43400fb74d62a0c
:1059f000f58274053bf583e0c0e074d628f582e4b7
:105a00003405f583d0e0f00c80ca7900801ee5c72c
:105a1000f525900368e0f5c790ff25e0f974ff696c
:105a200060057a00121c288525c779018532828598
:105a3000338312263774021223797f060224d37a25
:105a4000027900e52225e0f525e433f526742d25bd
:105a500025f584740a3526f585059222e0f874d67a
:105a600028fce43405fd22c39a125a72a2d265d0f2
:105a70003322f895e0f98e25c3e89525e9940022b4
:105a800074f61223fb74fe12239412262f8a828b43
:105a9000837c007d00e0f8c3940340057c800d808a
:105aa000548582848583850592a3a3e870150592a9
:105ab000a3e0f58f0592e0600553f7df803743f7e9
:105ac00020803274016870150592a3e0f5f6059206
:105ad000e0600553f7bf801d43f7408018e0600485
